:0C0000000C949D000C9400000C94000077
:10000C000C9400000C9400000C9400000C94000064
:10001C000C9400000C9400000C9400000C94000054
:10002C000C9400000C9400000C9400000C94000044
:10003C000C9400000C9400000C9400000C94000034
:10004C000C9400000C9400000C9400000C94000024
:10005C000C9400000C9400000C9400000C94000014
:10006C000C9400000C9400000C9400000C94000004
:10007C000C9400000C9400000C9400000C940000F4
:10008C001027E80364000A000100001000011000B2
:10009C00010001000000477265656E2773205475DE
:1000AC00726E005265642773205475726E00547220
:1000BC007920416761696E0050726573732030203E
:1000CC00546F20537461727400477265656E2057CB
:1000DC00696E00526564202057696E004452415786
:1000EC00210080C0040004009E000D000005A20049
:1000FC000B000D05AF000D001805A2000A00250528
:10010C00BA000B002F05AF000D003A05A20011003C
:10011C004705C4000A005805D50009006205DF0038
:10012C0006006B05E80002008305EE000000F89461
:10013C00EE27ECBBF1E0F5BFE5BFE0936C008DE082
:10014C00A2E0BB27ED938A95E9F780E090E1A0E06F
:10015C00B1E0ED930197E9F7E0EFF0E0859195912F
:10016C00009761F0A591B59105901590BF01F00134
:10017C0005900D920197E1F7FB01F0CFEFEFEDBF8A
:10018C00E0E1EEBFC0E0D5E00C940A02BA93AA936A
:10019C000E944D030330E0E01E0704F5F801A3E0D4
:1001AC00B0E00E94C703BF010F010E94540381F409
:1001BC00D001AA0FBB1FAD58BA4F0E94620341F485
:1001CC00DB01AA0FBB1FAB58BA4F0E94620309F0A8
:1001DC0002C0E1E04BC00F5F1F4FDCCF00E010E02E
:1001EC000330E0E01E07D4F4F8010E94540381F4BC
:1001FC00D801AA0FBB1FA958BA4F0E94620341F441
:10020C00D801AA0FBB1FA358BA4F0E94620309F072
:10021C0002C0E1E02BC00F5F1F4FE2CFEA81FB81F0
:10022C00A0917105B0917205EA17FB0751F40E9479
:10023C006A0339F4A0918105B09182050E94730381
:10024C0091F0A0917505B09176050E94730351F45D
:10025C000E946A0339F4A0917D05B0917E050E943D
:10026C00730309F002C0E1E001C0E0E019810881EC
:10027C00249608950E944D030930E0E01E074CF4CB
:10028C00F8010E94780311F4E0E004C00F5F1F4FE7
:10029C00F3CFE1E0099119910895BA93AA937720CD
:1002AC0021F4A881B981109709F008C091D1A0E080
:1002BC00B5E00E948203E1E07E2E46C0772021F05B
:1002CC00A881B981109709F43FC02297EA81FB817C
:1002DC003197E883F983A981AA231AF00E94880335
:1002EC0009F01EC00E948B03EA0FFB1F4082518253
:1002FC00F201AFEFBFEF0E94C7032F01EFEFFFEF4B
:10030C00E415F50521F464D1ADE0B5E003C060D18E
:10031C00A8E1B5E07ED1A2E3B0E00E94B10313C026
:10032C0057D1A5E2B5E00E94820352D1EFEFFFEF67
:10033C00E415F50521F44CD1AFE2B5E003C048D18A
:10034C00AAE3B5E066D1229641C11C98089903C076
:10035C00A1E0B0E0A2DF099903C0A4E0B0E09DDF0A
:10036C000A9903C0A7E0B0E098DF1C9A1D98089981
:10037C0003C0A2E0B0E091DF099903C0A5E0B0E0B2
:10038C008CDF0A9903C0A8E0B0E087DF0B9903C0AB
:10039C00A0E0B0E082DF1D9A1E98089903C0A3E08C
:1003AC00B0E07BDF099903C0A6E0B0E076DF0A99E4
:1003BC0003C0A9E0B0E071DF1E9A0895BA93AA9326
:1003CC000E94880319F4E0E0F0E000C10E948B0366
:1003DC000E94920319F4E1E0F0E002C0E0E0F0E0EA
:1003EC00F5C0BA93AA930E94880319F4E0E0F0E0F8
:1003FC00EDC00E948B030E94920319F4E0E0F0E040
:10040C0002C0E1E0F0E0E2C0E0E0E2BBE7EFE1BB1C
:10041C00EFEFE3B9E0EFE2B9EFEFE7BBEABBE4BB28
:10042C00EBBBE8BBE5BBA0E105D1D2D0A7E4B5E0BE
:10043C00F0D08BDFA0E00E949A0311F4D89801C091
:10044C00D89AA0E00E949F0311F4D99801C0D99AC0
:10045C00A1E00E949A0311F4DA9801C0DA9AA1E0A3
:10046C000E949F0311F4DB9801C0DB9AA2E00E946A
:10047C009A0311F4DC9801C0DC9AA2E00E949F035D
:10048C0011F4DD9801C0DD9AA3E00E949A0311F4E7
:10049C00DE9801C0DE9AA3E00E949F0311F4DF985E
:1004AC0001C0DF9AA4E00E949A0311F4C09801C025
:1004BC00C09AA4E00E949F0311F4C19801C0C19A94
:1004CC00A5E00E949A0311F4C29801C0C29AA5E05B
:1004DC000E949F0311F4C39801C0C39AA6E00E9426
:1004EC009A0311F4C49801C0C49AA6E00E949F0319
:1004FC0011F4C59801C0C59AA7E00E949A0311F4A3
:10050C00C69801C0C69AA7E00E949F0311F4C79831
:10051C0001C0C79AA8E00E949A0311F4A89801C0E0
:10052C00A89AA8E00E949F0311F4A99801C0A99A67
:10053C00A1E0B0E02BDEE03021F04AD0A8E5B5E038
:10054C000FC0AFEFBFEF22DEE03021F041D0A2E6CA
:10055C00B5E006C08FDEE03041F03AD0ABE6B5E056
:10056C0058D0AFEFB9EC0E94B103AAEFB0E00E94F3
:10057C00B1035FCFFFCFAA93E2B3EF70AE2FE88148
:10058C00E07FEA2BE2BB82E08A95F1F7929A82E057
:10059C008A95F1F7929882E08A95F1F776C0AA9342
:1005AC00A881E9DFE881E295E883A881E4DF81E1B5
:1005BC008A95F1F76AC0AA93E881F0E0ED57FA4FFB
:1005CC00E081A981AE0FEBDF6980988022960895B7
:1005DC00A2E00E94A403ACE0E2DFA1E00E94A4032D
:1005EC00E0E09E2E6E2E0895AA93A881AA3011F0F9
:1005FC00681448F0E0E0EA939394A92DDCDFA8811D
:10060C00AA3009F442C06394909AA881C8DF9098EC
:10061C003CC0BA93AA931A93A981BA81ED91A9838C
:10062C00BA831E2FE03019F0A12FDEDFF5CF188131
:10063C0023960895AA93E1B3E06FE1BB8A9A889A56
:10064C00899A9298909891988880E881E058E093E4
:10065C008505E881E054E0938605A4E1B0E00E94B2
:10066C00B1030E94AA030E94AA030E94AA03A0E25B
:10067C0082DF81E28A95F1F7A8E291DFA4E08FDFB7
:10068C00A5E88DDFA6E08BDFA3DF219608951A93F2
:10069C000A9300E010E000E010E00895A1E7B5E057
:1006AC00EE0FFF1FAE0FBF1F0E94DA03DF01EA81BE
:1006BC00FB81EA17FB0708950E94DA03DF01EA8148
:1006CC00FB81EA17FB070895A0917905B0917A0593
:1006DC00EA81FB81EA17FB070895EA81FB81EA179F
:1006EC00FB070895A1E7B5E0EE0FFF1FAE0FBF1F8C
:1006FC000E94DA03309708950E940F03A0EDB7E033
:10070C000C94B103E881F981EDCFE881F981A1E77F
:10071C00B5E0EE0FFF1F0895AE0FBF1F0E94DA0366
:10072C00EF3FAFEFFA070895B0E00E94E401E0302C
:10073C000895B0E00E94F701E03008950E94D502C0
:10074C00A3E0B0E00C94B103A0E30E94C10281E2EB
:10075C008A95F1F70895109639F0A8958AEF90E0F4
:10076C000197F1F71197C9F70895F195E195F040CC
:10077C000895FA9FF02DEB9FF00DEA9FE02DF10DFF
:10078C00089504D0F6DF0EF4F0DF0895E894F7FF37
:10079C0002C0EBDF6894B7FF06C0A095B095119628
:1007AC0000F8039400FA0895ED91FC9111970895C7
:00000001FF
